:020000041A00E0
:1000000088B40020B502001ABD02001ABF02001A0F
:10001000C102001AC302001AC502001A5A5A5A5ADB
:10002000CF02001ACF02001ACF02001AF501001AFF
:10003000C902001ACF02001A5102001AF915001A5B
:10004000D102001AD102001AD102001ACF02001AFE
:10005000D102001AD102001AD102001AD102001AEC
:10006000D102001AD102001AD102001AD102001ADC
:10007000D102001AD102001AD102001AD102001ACC
:10008000D102001AD102001AD102001AD102001ABC
:10009000D102001AD102001AEB15001AF115001A4C
:1000A0006116001A7516001A8916001A9D16001A94
:1000B000D102001AD102001AD102001AD102001A8C
:1000C0004D15001A5315001A5915001A5F15001A1C
:1000D0006515001A6B15001A7115001A7715001AAC
:1000E000D102001AD102001AD102001AD102001A5C
:1000F000CF02001AD102001AD102001AD102001A4E
:10010000CF02001AD102001AD102001AD102001A3D
:10011000D102001A00F002F800F05CF80AA090E8A2
:10012000000C82448344AAF10107DA4501D100F0B2
:1001300051F8AFF2090EBAE80F0013F0010F18BF23
:10014000FB1A43F001031847403D0000603D0000EA
:100150000A444FF0000C10F8013B13F0070408BFED
:1001600010F8014B1D1108BF10F8015B641E05D08B
:1001700010F8016B641E01F8016BF9D113F0080F40
:100180001EBF10F8014BAD1C0C1B09D16D1E58BFD2
:1001900001F801CBFAD505E014F8016B01F8016B09
:1001A0006D1EF9D59142D6D370470000002300247C
:1001B00000250026103A28BF78C1FBD8520728BF77
:1001C00030C148BF0B6070471FB503F097F91FBDE2
:1001D00010B510BD00F0D0F91146FFF7F5FF01F0A2
:1001E00074FC00F0EEF903B4FFF7F2FF03BC01F07A
:1001F0006BFA00002C4B19680868B0E8F04F80F3E8
:100200000988BFF36F8F4FF0000080F311887047AB
:100210000000000008480068006880F308884FF07C
:10022000000080F3148862B661B6BFF34F8FBFF34E
:100230006F8F00DF00BF00BF08ED00E0DFF80C00AB
:10024000016841F470010160704700BF88ED00E073
:10025000EFF30980BFF36F8F134B1A681EF0100F76
:1002600008BF20ED108A20E9F04F106009B44FF06C
:10027000280080F31188BFF34F8FBFF36F8F02F018
:10028000F9FB4FF0000080F3118809BC1968086879
:10029000B0E8F04F1EF0100F08BFB0EC108A80F3EA
:1002A0000988BFF36F8F7047B0030020EFF305801C
:1002B000704700000A4880470A480047FEE7FEE70B
:1002C000FEE7FEE7FEE7FEE7FEE7FEE7FEE7FEE706
:1002D000FEE7000004480549034A054B704700004B
:1002E0004116001A1501001A88B1002088B40020B8
:1002F00088B1002053EA020C00F069802DE9F04B30
:100300004FF00006002B1FBFB3FA83F503FA05F484
:1003100024FA05F65E4012BF1643B2FA82F502FADD
:1003200005F4C5F120051EBF22FA05FC44EA0C04C1
:10033000203556EA044C4FEA144418BF641C4FF0B1
:1003400000084FF00009904271EB030C39D30029EB
:1003500019BFB1FA81F701FA07F6B0FA80F700FA8F
:1003600007F6C7F120071EBF20FA07FC46EA0C0675
:100370002037B6FBF4FCA7EB0507103F07F01F0B77
:10038000CBF120060CFA0BFB2CFA06F644BFB34661
:100390000026202FA4BF5E464FF0000B5BEA060C40
:1003A00008BF4FF0010B19EB0B09ABFB027C48EBCC
:1003B0000608C01B06FB02CC0BFB03CC71EB0C0147
:1003C000C1E70B46024641464846BDE8F08B13B5EF
:1003D0004FF000004FF00001AFF30080BDE81C407B
:1003E0007047032A40F2308010F0030C00F01580B3
:1003F00011F8013BBCF1020F624498BF11F801CB28
:1004000000F8013B38BF11F8013BA2F1040298BF8C
:1004100000F801CB38BF00F8013B11F0030300F0F6
:100420007980083AC0F0088051F8043B083A51F846
:1004300004CBA0E80810F5E7121D5CBF51F8043B9F
:1004400040F8043BAFF30080D20724BF11F8013B12
:1004500011F801CB48BF11F8012B24BF00F8013B74
:1004600000F801CB48BF00F8012B704702F0FF03F2
:1004700043EA032242EA024200F002B84FF00002CF
:100480000429C0F0128010F0030C00F01B80CCF1A6
:10049000040CBCF1020F18BF00F8012BA8BF20F814
:1004A000022BA1EB0C0100F00DB85FEAC17C24BF68
:1004B00000F8012B00F8012B48BF00F8012B704712
:1004C0004FF0000200B5134694469646203922BFED
:1004D000A0E80C50A0E80C50B1F12001BFF4F7AF38
:1004E000090728BFA0E80C5048BF0CC05DF804EB1A
:1004F000890028BF40F8042B08BF704748BF20F888
:10050000022B11F0804F18BF00F8012B7047704785
:100510007047704710B5203AC0F00B80B1E8185012
:10052000203AA0E81850B1E81850A0E81850BFF4DD
:10053000F5AF5FEA027C24BFB1E81850A0E818507C
:1005400044BF18C918C0BDE810405FEA827C24BFD0
:1005500051F8043B40F8043B08BF7047D20728BF5E
:1005600031F8023B48BF11F8012B28BF20F8023BAD
:1005700048BF00F8012B7047754600F02BF8AE46D7
:1005800005006946534620F00700854618B020B59F
:10059000FFF7A0FEBDE820404FF000064FF0000737
:1005A0004FF000084FF0000B21F00701AC46ACE81B
:1005B000C009ACE8C009ACE8C009ACE8C0098D4688
:1005C000704710B50446AFF300802046BDE81040E8
:1005D000FFF709BE0048704724B1002070B50646F9
:1005E00040F6B834012572B600232A462946042075
:1005F00000F078FD16B1022E31D104E000F006FCC7
:1006000000F00CFC2BE000F027FC0120401CA04275
:10061000FCDB002301220621042000F063FD194ABF
:10062000194D13462946062000F078FD00F052FDD2
:100630000028FBD0002301220921042000F052FDF4
:100640000120401CA042FCDB104A2946134606202C
:1006500000F064FD00F03EFD0028FBD009250C4EA3
:10066000002400BF06EB84002946C378827816F880
:10067000240000F037FD641C0A2CF3D300F0D6FFF1
:1006800062B670BD00E1F505001BB70000CB280C79
:100690001035001A10B50024AE21084800F012F8F9
:1006A000074A002002F1200142F8240041F824000A
:1006B000641CE4B2082CF7D310BD00000A38001AFD
:1006C000841000202DE9F0410F4606460024DFF893
:1006D0006C802EE036F8341006EBC40518F8213093
:1006E00008EB8101DB014A78698803EB820295F807
:1006F00004C0134B41EA0C01D1506A79022A16D08A
:1007000036F8341008EB81008178FF290FD00AB148
:10071000012300E00023C2780A4800F097FD6879C1
:10072000012804D1A97916F8340000F00DF8641CF2
:10073000A4B2BC42CED3BDE8F08100004235001A1D
:100740000060084000400F4010B5AE2810D20B4C9E
:10075000012204EB800000298178C078064B02FA60
:1007600000F203EB810000F5005002D0C0F8002237
:1007700010BDC0F8802210BD00400F404235001A65
:1007800030B500240480521E01F07F438470B2F51E
:10079000002F05D2B3F1D05F04D0B3F1D85F03D0FE
:1007A000002030BD047001E00123037021F07F417F
:1007B0004FF480340823A1420DD24D0B11444570F3
:1007C000A14201D2490B03E0A1F5803103EB1141B5
:1007D0008170012030BDA1F5803403EB14444470D6
:1007E0001144F1E738B50C46054601F0D7FE224624
:1007F00029466846FFF7C4FF012803D001F0E0FE58
:10080000012038BD9DF800209DF802109DF80100E0
:1008100000F05CFD040008D19DF800209DF8021056
:100820009DF8010000F03AFD044601F0C9FE002CDD
:10083000E6D0002038BD00B589B031204FF082529B
:100840000090D2F80021684605A9904709B0012020
:1008500000BDF8B515460E46074601F09FFE32462C
:1008600039466846FFF78CFF012803D001F0A8FE47
:100870000120F8BD9DF800209DF802109DF80100B0
:1008800000F024FD040005D132462946384600F028
:10089000EBFC044601F094FE002CE9D00020F8BDEA
:1008A00010B5FFF7F7FE002000F030FA012000F04D
:1008B0002DFA022000F02AFA032000F027FA002087
:1008C00000F0A8F8BDE81040012000F0A3B8000037
:1008D0002DE9FC410546002000904C48C5EBC501C0
:1008E00000EB81040121606800F026FD012802D0A0
:1008F00007E0606880680421606800F022FD00283D
:10090000F7D1424F083F0421606800F01AFD80B122
:10091000607A0728F7D8606880688DF8040057F877
:1009200025000028EFD000236A4601A902F0FCF957
:10093000E9E7364E103E56F8250001F0DEFDE0B343
:1009400056F82500D0BB45E0607A072806D956F84E
:1009500025006A4601A902F0B5FA0CE0FF208DF8E7
:10096000040056F825006A4601A902F0ABFA616856
:100970009DF8040088600121606800F0DDFC01281A
:1009800002D017E0606880680421606800F0D9FC3C
:100990000028F7D10EE0607A07280BD860688068DD
:1009A0008DF8040057F8250020B100236A4601A9FC
:1009B00002F0BAF90421606801E00BE003E000F006
:1009C000C0FC0028E7D10221606800F0BAFC0128D1
:1009D000BAD00AE06068FF218160207A042804D040
:1009E0006068416901F007014161606803210162AB
:1009F0000098002807D006494FF080500860BFF3E8
:100A00004F8FBFF36F8FBDE8FC8100001C000020FA
:100A100004ED00E02DE9F8430546C0EBC5013D4873
:100A200000EB8104606800F091FC6068217A426804
:100A300022F004020A4342606068667AA27AE37A8E
:100A4000016821F0FF013143114319430160E1685E
:100A5000606800F093FC6068416841F00201416009
:100A60002D4805EB850600EB0613A030002700EBB0
:100A700085224FF4806801214046009702F073F808
:100A80002449103941F825002448012100EB0613C0
:100A9000A03000EB85224046009702F064F81D4923
:100AA000083941F82500207A042804D1606841699A
:100AB00041F00701416194F900002021002806DA85
:100AC00000F00F0000F1E02080F8141D03E000F1B9
:100AD000E02080F8001494F90010012001F01F02BA
:100AE00000FA02F24909890001F1E021C1F88022EF
:100AF00094F9001001F01F0290404909890001F1AA
:100B0000E021C1F800010120616902F017F8A0613D
:100B1000BDE8F8831C00002064110020041A0020A6
:100B20002DE9F05F88460546C0EBC5011648002652
:100B300000EB81079346B869344610B3DFF848905C
:100B4000A9F1080959F82510D9B14FF0FF3A5146DB
:100B500002F0FAF9012814D14E4609E00BEB04012A
:100B600056F82500524602F02BF918B1641CA4B2C5
:100B70004445F3D3002301261A461946B86902F00A
:100B800047F83046BDE8F09F1C0000202DE9F84FE3
:100B90000E460546C0EBC5012C48914600EB81048A
:100BA0000027A069F0B3DFF8A480A8F1100858F876
:100BB0002510B9B3791E02F0C7F901280DD042E023
:100BC00057F8250000235246494602F021F848B163
:100BD000761E09F10109B6B202E04FF47A7A47466F
:100BE000002EEDD16068416901F00801416111E01A
:100BF000607A07280ED8FF208DF8000057F82500EE
:100C00000022694602F0DCF8012803D160689DF8F3
:100C10000010816057F8250001F066FC38B1022110
:100C2000606800E00FE000F08CFB0128E0D0606815
:100C30000127416941F00701416100231A46194625
:100C4000A06901F0E5FF3846BDE8F88F1C000020E0
:100C500070B52B4B054688B00FCB8DE80F000020F8
:100C600006905DF825006C4641688B074FF0350112
:100C700015FB01F1234A02EB81062CD5D6F8C810EA
:100C800029B918E054F825009DF81010016054F8B7
:100C900025004069800607D506AA04A9D6F8C80031
:100CA00002F010F90028EDD1D6F8C80002F07FF864
:100CB00088B154F82500416821F0020141600AE042
:100CC00000688DF81C00D6F8CC0020B1002306AADD
:100CD00007A902F029F854F825004169C907EFD1A6
:100CE00000F074FB0698002807D007494FF08050A9
:100CF0000860BFF34F8FBFF36F8F08B070BD000067
:100D00007C3D001A5400002004ED00E0F0B5394BA2
:100D1000054687B00FCB01AC84E80F0036A006ACC7
:100D20000068059035A000680690605D00F0EEFA5E
:100D3000605D00F0DBFA0028FAD101AE56F825001C
:100D400000F078FB352015FB00F42D4F56F82500F8
:100D500057F8241000F094FB56F8250007EB8404A4
:100D60006168C160A168816000270097D4E905200F
:100D700004F12803012101F0F6FEC4F8C800009731
:100D8000D4E9072004F17803012101F0ECFEC4F856
:100D9000CC001C4905EB850001EB0011012001F09E
:100DA000CDFE60621848C4F8D00056F82500E1680E
:100DB00042680A4342600121C16505A8602240578C
:100DC000002806DA00F00F0303F1E02383F8142D66
:100DD00003E000F1E02383F8002400F01F029140BB
:100DE0004009800000F1E020C0F88012C0F8001136
:100DF00007B0F0BD8C3D001A18191A1B2C2D2E2F90
:100E000054000020843A0020510C001A02488169E5
:100E100041F0010181617047000005400248416CCA
:100E200041F0010141647047000005400949B0F5F7
:100E3000A17F01EBC00106D3D1F8F00640F001001C
:100E4000C1F8F0067047D1F8000140F00100C1F888
:100E5000000170470010054008B50D494FF47A7045
:100E6000009088698A6920F00200824200D088617F
:100E7000084A094B20F0010012689A4201D340F061
:100E8000040088610098411E0091FBD208BD00005B
:100E9000000005400C35001A002D310110B5012469
:100EA00001B103240AB144F00404022B01D144F03F
:100EB0002004064AB0F5A17F02EBC00102D3C1F8BD
:100EC000F04610BDC1F8004110BD00000010054003
:100ED0001C2805D2054901EB8000C06DC10701D077
:100EE00011207047C0F30460704700000000054007
:100EF00010B5FFF7EDFFBDE8104000F001B80000AD
:100F000030B4024600201F4B1F49204C112A0CD23E
:100F1000DFE802F0090D0F171F0B212426280B0B09
:100F20002B2D2F3133004FF4004030BC7047184850
:100F3000FBE7D3F82C2102F00702042AF5D008467B
:100F4000F3E7D3F82C0100F007000428F7D111488B
:100F5000EBE7114800E011480068E6E72068E4E7A5
:100F60006068E2E730BC00F04BB8002106E00121E8
:100F700004E0022102E0032100E0042130BC10461D
:100F800000F00EB80030044040787D01FC030020E2
:100F9000001BB70080F0FA020835001A0C35001A61
:100FA00010B50A46084600F01DF80346104600F04A
:100FB00009F804461846FFF7A3FF641CB0FBF4F0E1
:100FC00010BD000004A1064A095C02EB8000806CA1
:100FD00001EA900070470000030F0F0FFF000000B0
:100FE00000000540054901EB8000806CC10701D07D
:100FF00011207047C0F304607047000000000540F6
:10100000F8B5144D6C6CC4F30360FFF779FF12A1BF
:1010100009680091296CC90713D0C4F30131C4F3E6
:101020000742C4F30125C4F3C013491CC4F3801460
:101030001DF80550521C234305D0B0FBF1F050437E
:10104000F8BD0020F8BD6B00B2FBF3F2B0FBF1F08D
:101050005043F8BD00000540010204082DE9F041AD
:101060001A4AB0F5A17F02EBC00102D3D1F8F046D5
:1010700001E0D1F80041E10726D01C210022144BE9
:101080000EE000BF33F81660864208D86D888542AE
:1010900005D302EB420003EB4000017907E0521C4C
:1010A00002EB420603EB46052F798F42EAD1084650
:1010B000FFF71EFF6109490704D00221B0FBF1F0E0
:1010C000BDE8F0810121F9E70020F9E700100540B3
:1010D0000A3E001A0248006C00F001007047000050
:1010E0000000054030B50B4C04EB8005EC6D1C286E
:1010F0000DD211290AD0084804400AB144F4006412
:101100000BB144F0010444EA0160E86530BD44F0ED
:101110000100FAE700000540FEF7FFE02DE9F04787
:101120009946154688468246FFF7EAFE0646681C41
:101130001AD0B5FBF6F44B4642462146304600F045
:1011400079F80746641C4B4642462146304600F07B
:1011500071F837B118B1E91B401B814202D9611EF9
:1011600015E008B1214612E0B8FBF6F4B9FBF6F73A
:1011700000254B4642462146304600F05BF800B160
:101180002546BC4201D2641CF3E72DB129465046E6
:10119000BDE8F04700F004B80020BDE8F08700008B
:1011A000F8B50546FA2000900C462846FFF7A8FE41
:1011B0001C4F00260246796C3346012021F0F8517D
:1011C00041EA0561184D62432940184D641EAA4248
:1011D00001D30EE05B1C400000FB02FCAC45F9D3E0
:1011E000200440EA063040EA0320084340F0400073
:1011F00006E00F48824211D241EA044040F0C000AC
:1012000020F00100C7F84400FFF764FF0028FBD07E
:101210000098411E0091FBD21046F8BDFFF7FEFD7D
:101220000020F8BD000005403DCC00FF005F4C09E8
:1012300000D012134843904204D30349884201D896
:10124000984200D90020704700CB280C00EB8100A9
:10125000012100F50050914002680BB10A4300E003
:101260008A4302607047000000B589B033230DF156
:10127000140C04938CE8070007484FF47A71006857
:10128000B0FBF1F00890694604A800F019FC009842
:1012900009B0C0B200BD0000F803002000B589B05D
:1012A00034230493CDE9050107484FF47A710068AF
:1012B000B0FBF1F0CDE90702694604A800F000FC9C
:1012C000009809B0C0B200BDF803002000B589B095
:1012D00032230DF1140C04938CE80700694604A82E
:1012E00000F0EEFB009809B0C0B200BD064942090B
:1012F00051F8221000F01F0201209040014201D15C
:1013000001207047002070475031054004494209D0
:1013100001EB820100F01F0201209040086070473D
:10132000003105400349884201D1A5207047832040
:101330007047000000500C408069084000D0012038
:101340007047C068084000D00120704710B50446BF
:10135000FFF7E8FFFFF76AFD606820F004006060B7
:10136000206820F0FF0040F0070020602046BDE824
:101370001040014900F002B8A086010070B50C468B
:101380000546FFF7CFFFFFF769FE03460021481E21
:1013900002220AE0481C5043B3FBF0F0A04204D9FB
:1013A000491CFF2901D90021921CA042F2D82846ED
:1013B000BDE87040AFF300800368C9B223F47F43F7
:1013C00043EA012101600261704700008168C9059C
:1013D0000CD5016A41F480710162416821F4807189
:1013E000416008490A780AB901220A7081688905B2
:1013F00007D5016A41F400710162416821F400716E
:1014000041607047040400200949401809D0B0F534
:10141000805F07D0B0F5802F06D0B0F5822F05D0C1
:10142000002070470120704702207047032070475A
:1014300000F0F7BF38B50446FFF7E6FF0E49012379
:101440001A4631F810001946FFF728FD0720A06062
:101450000020E0656060E0602062E0646065206517
:1014600006498C4202D12061A06900900320E0600F
:101470001020A06238BD0000763E001A002008400F
:101480002DE9F34F81B0002407464FF001094FF0DA
:10149000FF3A0094FFF7B8FF2B4931F81000FFF72F
:1014A000DDFD83460125002622E00298AA19424369
:1014B0004FEA0B7CACFB05084FEA1B1101FB0581D1
:1014C00000230CFB0311FEF715FF002801DA404250
:1014D000491C82450BD351B10A0C08D1032900D213
:1014E0002EB90C46A94600965FEA000A02D0761C87
:1014F000AE42DAD36D1CBAF1000F01D0102DD2D359
:1015000004B3F86840F08000F860E1B2C4F307204B
:1015100039607860F86820F08000F86000994FEA40
:10152000097001F00F0141EA1060B862009A4FEAB9
:101530001B1009EB020100FB09F06143B0FBF1F065
:10154000BDE8FE8F0020FBE77E3E001A002000F081
:1015500015B8012000F012B8022000F00FB80320E7
:1015600000F00CB8042000F009B8052000F006B81F
:10157000062000F003B80720AFF3008070B5124ECC
:101580000546F0690124AC4034EA000005D10F485B
:1015900050F8250000B18047F461306A34EA000059
:1015A00006D10A48203050F8250000B18047346247
:1015B0000748074900EB4500891C40780856BDE8FC
:1015C000704000F007B80000007008408410002050
:1015D0003835001A00F01F020121914040098000B7
:1015E00000F1E020C0F8801270470020FFF770B9CA
:1015F0000120FFF76DB9000010B500BF282080F36F
:101600001188BFF34F8FBFF36F8F00BF01F08CFDC8
:1016100018B14FF080500449086000BF002080F3EB
:10162000118800BF10BD000004ED00E010B5692076
:10163000FFF714FD0149086010BD0000F803002009
:10164000054810B50549016000F01CFABDE81040DE
:101650000220FEF7C3BF000008ED00E00000001A02
:101660000348D0F8D010002901D000200847704767
:10167000540000200348D0F8A411002901D0012013
:1016800008477047540000200348D0F8781200291A
:1016900001D0022008477047540000200348D0F8CA
:1016A0004C13002901D00320084770475400002044
:1016B0004FF4C040824201D900207047014A0A60BD
:1016C000704700007050002030BFFDE710B50246A3
:1016D0000A4C136800200A4AA34202D3094CA342D1
:1016E00001D2536001200968B1F5002F01D9002013
:1016F00010BD91600021D16010BD00000000081AEB
:10170000080400200000081B0149096801607047B7
:1017100008040020014900680860704708040020A0
:10172000024900684860012070470000180400204A
:1017300070B50C4A0021516001231370C2F80814DF
:1017400002F108034FF48064455C5D54D2F80854FC
:10175000465C3544C2F80854491CA142F4D3012028
:1017600070BD0000180400200349D1F80814C943D3
:10177000491C0160704700001804002070B50F4C30
:1017800000206168491C15D0A168002912D0FFF71C
:1017900052F805464FF400710948FFF723F8A16895
:1017A00005436068FFF71EF828430649012802D068
:1017B00000220A7070BD0122FBE70000080400202F
:1017C0000080001A000000200EB500F005F9B8B145
:1017D000FFF766F800F068FE00F066FD62B60A4AA0
:1017E000002002F160018DE8070003464FF400720B
:1017F00006A1094801F06EFCBDE80E4001F07EB87C
:10180000BDE80E4000F092B8240800204961702025
:101810005461736B00000000AD19001A2DE9F0410E
:101820000646244C006802274FF48068411CA4F14E
:1018300008051AD0686020493068884215D1FF2217
:1018400039022046FEF712FE002104F50070C5F8AB
:10185000081440F2FF1100BFD5F8082410F8013B2E
:101860001A44C5F80824491EF6D214483168826823
:10187000914204D1D5F8082443689A420AD0816085
:10188000D5F8081441600B491839CA68D5F80834EE
:101890001A44CA600078012808D12878012805D1A7
:1018A000686822464146FEF7D4FF07463846BDE841
:1018B000F0810000200400200080001A00000020B9
:1018C00070B5ADF5007D06464FF400750024FF228B
:1018D00029466846FEF7CAFD104A30681060104875
:1018E000506090689060D068C043401CD060106821
:1018F00051689368D268CDE90001CDE902326A46A9
:1019000029460848FEF7A5FF012803D10649002013
:10191000012408700DF5007D204670BD08040020EC
:101920000082001A0080001A0000002010B572B674
:10193000FF2220211148FEF799FDFF2220211048A7
:10194000FEF794FD4FF0E021002008610D490A6880
:1019500042F000720A600C4AD2F8001281F3088843
:1019600080F3148809490A4C0B68A34200D108602F
:10197000D2F80402BDE810400047000080E100E01A
:1019800080E200E004ED00E00080001AF07F00102B
:10199000785634120249487003490248086070477B
:1019A0000000002021436587F07F0010094C0025CE
:1019B00065607B20A06060780128FCD100F00CF805
:1019C00008B16570F7E7C82000F0C7FBFFF7AEFF6E
:1019D000F1E700000000002010B51649164C002267
:1019E000D1F800322270627014480C6804604C68B0
:1019F00044608C688460C968C1600168491C08D073
:101A00005B1C06D00E490F4B0968994203D1012097
:101A100010BD022010BD416843688468234402E081
:101A200011F8014B22449942FAD3C0688018F1D0D2
:101A3000032010BD0080001A0000002008040020D0
:101A4000F07F00107856341201210120094A1268F3
:101A50000AB100200CE0084A12680AB1002007E031
:101A6000064A1368064A1268521E934200D10220A9
:101A700070470000FCB00020D003002010B100200F
:101A8000BC0300200CB50C490A480A1D09680091E6
:101A900011680191094A0099914209D10199A1F176
:101AA0008852113A04D1016841F47001009101603B
:101AB0000CBD000088ED00E040EF00E021001110B7
:101AC0004FF08252D2F80021104710B572B6FFF7DE
:101AD000ADFDFFF779FE002010BD00002DE9F041BB
:101AE00005460E461C4807681C480068001D00F0AB
:101AF000E7FC50B91948006890F82C100120884084
:101B000017490968814316480160681C38B936B125
:101B100012480168091D134800F033FD1AE07C19D2
:101B20000E4800684460BC4207D20C480168091D99
:101B30000D48006800F00BFD0CE008480168091D25
:101B40000A48006800F003FD09480068844201D299
:101B500007480460BDE8F081C0030020B003002006
:101B6000C403002010B10020B8030020B4030020FB
:101B7000DC03002010B5044600F010FD2448006886
:101B8000401C234908602348006840B9214804608C
:101B90000846006801280DD100F068F90AE01E48E7
:101BA000006838B91B480068C06AE16A884201D8F9
:101BB0001848046019480068401C18490860084625
:101BC0000068A06494F82C1001208840144909682A
:101BD000084313490860E16A01EB8101114A02EBF5
:101BE0008100211D00F0CDFC00F0EAFC0A480068ED
:101BF00068B108480068C06AE16A884207D24FF0BD
:101C0000805009490860BFF34F8FBFF36F8F10BD3D
:101C1000BC030020B0030020C8030020D80300202C
:101C2000C403002070B0002004ED00E0704770B5E0
:101C300004460D46206C70B1216CE0680144E160FF
:101C4000D4E90210884201D32168E1602846226C61
:101C5000E168FEF7C6FB70BD2DE9F04104460F4672
:101C600015464FF00008A66B206C48B92068002884
:101C70002CD1A06801F0E6FA80460020A06025E0A3
:101C80007DB93946226C6068FEF7ABFB216C606859
:101C900008446060D4E90101884217D3206860607D
:101CA00014E03946226CE068FEF79BFB216CE0688B
:101CB000411AE1602168E068884203D2216CA06883
:101CC000411AE160022D01D106B1761E701CA0639D
:101CD0004046BDE8F08101464A6A22B10A6B1268AB
:101CE000C2F1050000E00020704700000021012241
:101CF0000C4B1B68012B00D901210B4A1268D26AD8
:101D00000AB100200DE0094A1268012A01D9002019
:101D100007E009B1002004E0054A1268054B1B6882
:101D2000D01A7047C4030020B003002070B0002018
:101D3000DC030020C003002000BFFFF777FF10483E
:101D40000068012807D94FF080500E490860BFF3A2
:101D50004F8FBFF36F8F00F0DFFBFFF7C7FF044625
:101D6000022C0BD300F07EFEFFF7C0FF0446022CCE
:101D700002D3204600F068FC01F04CFBDDE70000D8
:101D800070B0002004ED00E010B5044654B100200E
:101D9000A06020600021E16000231A461946204619
:101DA00000F036FF10BD2DE9F04106460D461746FE
:101DB0009846069C0DB9246000E02760E663256420
:101DC0000121204600F0E4FE84F84C80BDE8F0815B
:101DD0002DE9F05F81460E4690469A460A9F0C9C7C
:101DE0004FEA8801A522206BFEF740FBA8F1010015
:101DF000216B01EB800B2BF0070B86B1002507E070
:101E0000715D04F134004155705D00B902E06D1C54
:101E1000142DF5D300BF00214720015502E000201A
:101E200084F83400052F00D30427E76227650020DB
:101E30006065201D00F088FB04F1180000F084FBB1
:101E40002461C7F10500A06164620020A06584F8E8
:101E50005C0052464946584600F0C6F820600B9890
:101E600008B10B980460BDE8F09F000010B5002495
:101E700007E004EB84010D4A02EB810000F057FB00
:101E8000641C052CF5D30A4800F051FB094800F00A
:101E90004EFB094800F04BFB084800F048FB0448A3
:101EA0000749086003480749086010BD70B000206A
:101EB000D4B00020E8B00020FCB0002010B1002019
:101EC000B4030020B803002070B5054600F066FB9F
:101ED000A86B08B9012400E0002400F071FB204643
:101EE00070BD70B5054600F059FBA86BE96B8842E0
:101EF00001D1012400E0002400F062FB204670BD07
:101F00000A490968096809B9012100E0002121B1E5
:101F10004FF0FF31064A116006E004490968C968BC
:101F2000C868034A4168116070470000B40300208C
:101F3000DC03002000BF282080F31188BFF34F8FFF
:101F4000BFF36F8F00BF00BFFEE770B5044600F01F
:101F500025FB94F9455010E0606A08B9012000E0C3
:101F6000002038B904F1240001F012FA18B100F091
:101F700057FC00E003E0681E45B2002DECDC00BF1A
:101F8000FF2084F8450000F01BFB00F007FB94F9EC
:101F9000445010E0206908B9012000E0002048B951
:101FA00004F1100001F0F4F908B100F039FC681EEA
:101FB00045B200E001E0002DECDC00BFFF2084F81A
:101FC000440000F0FDFA70BD0648006830B10549D4
:101FD000096801F15400496D491C0160014800681D
:101FE00070470000B0030020001F4FF080730360B3
:101FF000001F21F001030360001F054B036014382C
:102000000260001F6FF00203036020387047000079
:10201000351F001A2DE9F0411546027803F001033F
:1020200042EAC3124378154E002443EA022200BF5D
:1020300004EB440306EB43031F8897420DD1D3F80A
:10204000023053B104EB440206EB4202D2F80230F4
:102050002A4698470D2C04D206E0641CA4B20D2C2D
:10206000E6D30420BDE8F081012801D00620F9E77D
:10207000288808B10520F5E70120F3E7BC3D001AE8
:1020800010B514460846FFF73FFB042020800120CE
:1020900010BD10B51446801CFFF73CFB00202080CB
:1020A000012010BD002010800120704710B5811D57
:1020B0001446801CFFF70AFB00202080012010BD81
:1020C00010B51446801CFFF72BFB00202080012058
:1020D00010BD10B514460846FFF746FB04202080CB
:1020E000012010BD10B51446801CFFF797FB00209F
:1020F0002080012010BD10B51446801CFFF718FB8E
:1021000000202080012010BD10B51446FFF736FBDB
:1021100000202080012010BD10B5811D1446801CB8
:10212000FFF7CEFB00202080012010BD10B5144623
:102130000120FFF72FFC00202080012010BD01208E
:102140000870108070470020087002234B70887060
:10215000C870042010800120704738B5044600F094
:10216000DDFF00904FF47A704443B4FBF0F1684611
:1021700000F010FB38BD0000014800F0CFF8FBE78D
:10218000C43B002030B45524047044708170C27088
:10219000032101710121A0F80710C37230BCAFF315
:1021A000008010B58278C37800211A4403791A445C
:1021B000B0F8053002EB132252FA83F2B0F8073080
:1021C00002EB132292B252FA83F292B205E0441863
:1021D000491CE47A89B2224492B28B42F7D8D143A7
:1021E000491CA0F8091010BD30B5ADF2344D0446BD
:1021F0000146012540F22D426846FEF7F2F82079AB
:1022000000B900250DF10B012B4604F10B000A1F4C
:10221000FFF700FF0346A0788DF80300E0788DF803
:102220000200052B10D1D4F8320468B102208DF8D9
:1022300004006846FFF7B5FFBDF80700D4F8322464
:102240000B3080B269460DE0A278E1782046FFF7B6
:1022500099FFD4F83224002A05D0B4F807002146AB
:102260000B3080B290470DF2344D30BD0A46014626
:102270000120FEF755BC00007CB50C4608A10546C0
:10228000D1E90001CDE900016A4608210120FEF7ED
:102290007DFC224629460120FEF778FC7CBD00002B
:1022A000FFFFFFFFFFFFFFFF0EB50D4800F0EDF849
:1022B0000B480C4900F23C42C0F832140A49C0F8FD
:1022C000361400F29C4102208DE807000202002330
:1022D00006A10B4800F0FEFE0A4908600EBD000092
:1022E000C43B00207922001A6D22001A486F7374D3
:1022F0005F48616E646C65725F5461736B000000CF
:102300007921001AA4030020B0F8070000210B3047
:1023100001E0491C89B28842FBD2704710B50446DF
:102320004FF47A7100F024F8072820D2DFE800F09B
:102330001F1F1F04080C08002046FFF755FF11E07F
:10234000A278E178022302E0A278E1780323204614
:10235000FFF718FFB4F80700D4F832240B3080B22E
:10236000214690472046BDE8104000F08EB810BDD1
:10237000F8B500258DF80050D0F8362404462AB16F
:10238000694601209047012805D077E0002000F041
:1023900003FB0720F8BD94F82D0440B30322042664
:1023A000012836D00228F5D1B4F830049DF8001089
:1023B00004F10B050844A4F83004B4F82E04431CBF
:1023C000A4F82E344155B4F80700B4F82E1488420E
:1023D00054D1B4F80900B4F8301408440004000CD7
:1023E0004AD02046FFF790FF84F82D6446E09DF820
:1023F000000060702178552901D1552801D0207046
:102400003CE0012084F82D04A4F82E54A4F83054A4
:1024100034E0B4F82E04A11C9DF80070431CA4F80D
:102420002E340F54B4F82E04092827D1B4F807002D
:1024300040F22241884224D8A4F82E54022184F884
:102440002D14B4F83014A3781944E378194423798F
:102450001944B4F8053001EB132189B251FA83F124
:1024600001EB102189B251FA80F189B2A4F830143D
:1024700020B9B4F80900B0E784F82D2494F82D04AD
:10248000F8BD84F82D640420F8BD10B5044640F270
:102490002D41FDF7F3FF002084F82D04A4F82E044D
:1024A000A4F8300410BD000010B5034C034901200E
:1024B00000F044FB606010BDA803002060490020CC
:1024C00001460A69D1E901309860D1E901035860F9
:1024D0005068884201D18868506000200861106807
:1024E000401E10601068704770B5044600F056F842
:1024F000A56B00F065F8284670BD01460A46906B52
:1025000070470000034B036003F160000860802007
:1025100010607047B049002030BF7047A02080F3A2
:102520001188BFF34F8FBFF36F8F02BEFEE700F13C
:10253000080141604FF0FF31816000F10801C16086
:10254000016100210160704700210161704710B5F1
:1025500002460B685C1C0CB9106907E002F1080028
:1025600000E04068446824689C42FAD944684C60A2
:102570004C68A160886041600A611468641C146042
:1025800010BD42684A6093688B609368596091609F
:10259000086103685B1C03607047000000BF2820CF
:1025A00080F31188BFF34F8FBFF36F8F00BF0348D5
:1025B0000068401C0149086070470000E8030020E3
:1025C00006480068401E054908600846006820B9B2
:1025D000002080F3118800BF00BF7047E80300208F
:1025E000154800684FF47A71B0FBF1F013490860A8
:1025F000084600686FF07F41B1FBF0F010490860B9
:102600000D480068B0FBF0F02D21B1FBF0F00D4952
:10261000086000204FF0E0210861886106480068EA
:102620004FF47A71B0FBF1F0401E4FF0E0214861A9
:102630000720086170470000F8030020EC03002029
:10264000F0030020F40300202DE9F04104464E4839
:102650000068844201D94C4804684FF0E0200069CA
:1026600020F001004FF0E021086108468169601EFA
:10267000464A126802FB001545480068854202D9A7
:10268000434800682D1A72B6BFF34F8FBFF36F8FA8
:10269000FFF7DAF980B94FF0E02080694FF0E021D0
:1026A00048610846006940F0010008613748006849
:1026B000401E486162B665E04FF0E02045610020B1
:1026C0004FF0E02188610846006940F00100086190
:1026D000A046B8F1000F04D0BFF34F8F30BFBFF357
:1026E0006F8F62B6BFF34F8FBFF36F8F72B6BFF3BA
:1026F0004F8FBFF36F8F06204FF0E021086108462F
:10270000006900F48030B8B120490968491E4FF0D3
:10271000E0229269AA1A881A1D490968884203D3DF
:102720001A490968884202D918490968481E4FF0B9
:10273000E0214861661E12E01448006860434FF0D3
:10274000E0218969471A11480068B7FBF0F6701C50
:102750000E4909684843C01B4FF0E0214861002042
:102760004FF0E02188610846006940F001000861EF
:10277000304600F009F905480068401E4FF0E0219E
:10278000486162B6BDE8F081F0030020EC03002050
:10279000F40300202DE9F047044688464FF0000975
:1027A00000F060F916480668206800EB080520680C
:1027B000B04207D92068A8420BD9B54209D94FF0D9
:1027C000010906E02068A84201D8B54201D94FF0BE
:1027D00001092560B9F1000F03D0A81B0021FFF704
:1027E0007DF900F017FE07463FB94FF080500549CC
:1027F0000860BFF34F8FBFF36F8FBDE8F087000015
:10280000C003002004ED00E00349096801600349AA
:102810000968416070470000D4030020C003002015
:102820000120014908607047D003002070B50546BB
:102830000C460548016818312846FFF788FE01213B
:102840002046FFF74BF970BDB00300202DE9F0479B
:1028500006460F4634464FF00109002E47D0206D42
:10286000B84201D23D4600E0256DE06AA8423ED064
:10287000606D01283BD1D4F82C80E562A06900F09E
:10288000004010B9C5F10500A06108EB8801194AA4
:1028900002EB81016069884201D1012000E0002043
:1028A00028B3201DFFF70CFE78B9E06A00EB80002A
:1028B000104951F8200040B994F82C1001208840AC
:1028C0000D49096881430C48016094F82C100120DF
:1028D000884009490968084307490860E16A01EB33
:1028E0008101044A02EB8100211DFFF74AFEBDE889
:1028F000F087000070B00020C403002010B586B03F
:1029000000200590049003AA04A905A8FFF7FAFD8A
:102910000022DDE904101346CDE90021029013A145
:102920001448039A00F0D6FB134908600846006873
:1029300008B1012400E00024012C14D100BF28209C
:1029400080F31188BFF34F8FBFF36F8F00BF4FF03D
:10295000FF300A4908600120094908600020094940
:10296000086000F0C7F806B010BD000049444C45AF
:1029700000000000391D001AE0030020DC030020E5
:10298000C8030020C0030020024909680144014A2D
:1029900011607047C003002070B50546FFF7FEFDCB
:1029A00015B92948006800E028460446201DFFF7B5
:1029B00087FD78B9E06A00EB8000244951F82000D7
:1029C00040B994F82C1001208840214909688143BE
:1029D0001F480160A06A18B104F11800FFF770FDEC
:1029E000211D1C48FFF7CDFD94F85C00012802D1A1
:1029F000002084F85C00FFF7E3FD1748006828B169
:102A0000FFF7CCFDFFF77CFAFFF7DAFD0E48006810
:102A1000844217D11048006840B14FF080500F49F0
:102A20000860BFF34F8FBFF36F8F0BE0094800685A
:102A30000B490968884203D100200349086001E07E
:102A400000F018F870BD0000B003002070B0002046
:102A5000C403002010B10020C803002004ED00E0F2
:102A6000BC03002002480068401C01490860704710
:102A7000E403002010B51A48006818B10120194974
:102A800008602BE0002017490860174800680068BC
:102A900015490968096B884205D813480168343123
:102AA0000068FFF73BFD11480068B0FA80F0C0F104
:102AB0001F0101EB81020E4B03EB8200426852685A
:102AC000426000F108024368934202D142685268B2
:102AD00042604268D268044B1A6000BF10BD00001B
:102AE000E4030020D0030020B0030020C403002032
:102AF00070B0002010B50E48006840F0FC700C4922
:102B000008600846006840F078400860FFF768FDFC
:102B1000002008490860FDF791FB0748006840F075
:102B2000404005490860FDF775FB002010BD00001E
:102B300020ED00E0E803002034EF00E02DE9F84349
:102B400004460D4601274FF000082B46002211468F
:102B50000120009400F007F806463046FFF714F90C
:102B60003046BDE8F8832DE9F84306460F46904607
:102B70001C46DDF82090254635B14B464246394685
:102B800030460095FFF70FF92846BDE8F8830000AE
:102B900070B505460E462C46FFF700FDD4E90F122E
:102BA000206801FB0200A0600020A0632068606034
:102BB000E06B401E226C216800FB0211E160FF20E7
:102BC00084F8440084F845009EB9206908B90120C2
:102BD00000E00020A8B904F1100000F0D9FB80B19A
:102BE0004FF0805009490860BFF34F8FBFF36F8FDC
:102BF00007E004F11000FFF79AFC04F12400FFF74E
:102C000096FCFFF7DDFC012070BD000004ED00E044
:102C10002DE9FF4383B0074688461D464FF0000963
:102C20003C4600BFFFF7BAFCA06BE16B884201D3C2
:102C3000022D28D12A4641462046FFF70DF80646C8
:102C4000606A08B9012000E0002068B904F124009E
:102C500000F09EFB88B14FF0805032490860BFF30E
:102C60004F8FBFF36F8F08E03EB14FF080502D497A
:102C70000860BFF34F8FBFF36F8FFFF7A1FC0120F8
:102C800007B0BDE8F083059818B9FFF799FC00205C
:102C9000F6E7B9F1000F04D101A8FFF7B5FD4FF039
:102CA0000109FFF78DFCFFF7DDFEFFF777FC94F9D4
:102CB0004400401C10B9002084F8440094F94500F9
:102CC000401C10B9002084F84500FFF779FC05A9E5
:102CD00001A800F0D1F9F0B92046FFF702F9A0B140
:102CE00004F110000599FFF7A1FD2046FFF72DF92B
:102CF00000F090FB002895D14FF080500949086002
:102D0000BFF34F8FBFF36F8F8CE72046FFF71DF99E
:102D100000F080FB86E72046FFF717F900F07AFB0A
:102D20000020ADE704ED00E02DE9F05F05468A469E
:102D300016461F462C4600BF2821EFF3118081F371
:102D40001188BFF34F8FBFF36F8F00BF8146A06B19
:102D5000E16B884201D3022F20D194F945B03A4665
:102D600051462046FEF778FF0BF1010070B9606A0A
:102D700008B9012000E0002068B904F1240000F047
:102D800007FB40B13EB10120306004E00BF10100CF
:102D900040B284F845004FF0010801E04FF0000810
:102DA00000BF89F3118800BF4046BDE8F09F01468F
:102DB0000A46936B0BB9012000E000207047000029
:102DC0002DE9F74183B005460F464FF000082C4629
:102DD00000BFFFF7E3FBA66BF6B139462046FEF7CE
:102DE00026FF701EA063206908B9012000E00020C2
:102DF00060B904F1100000F0CBFA38B14FF0805008
:102E00002F490860BFF34F8FBFF36F8FFFF7D8FBD9
:102E1000012006B0BDE8F081059818B9FFF7D0FB96
:102E20000020F6E7B8F1000F04D101A8FFF7ECFC91
:102E30004FF00108FFF7C4FBFFF714FEFFF7AEFBEE
:102E400094F94400401C10B9002084F8440094F91F
:102E50004500401C10B9002084F84500FFF7B0FB86
:102E600005A901A800F008F9F0B92046FFF72CF8F1
:102E7000A0B104F124000599FFF7D8FC2046FFF724
:102E800064F800F0C7FA0028A3D14FF080500C4935
:102E90000860BFF34F8FBFF36F8F9AE72046FFF7AD
:102EA00054F800F0B7FA94E72046FFF74EF800F028
:102EB000B1FA2046FFF708F800288AD00020A8E7DA
:102EC00004ED00E02DE9F05F05468A4616462C46E3
:102ED00000BF2821EFF3118081F31188BFF34F8FDA
:102EE000BFF36F8F00BF8046D4F83890B9F1000F60
:102EF00021D094F944B051462046FEF798FEA9F13E
:102F00000100A0630BF1010070B9206908B901202C
:102F100000E0002068B904F1100000F039FA40B177
:102F20003EB10120306004E00BF1010040B284F8B2
:102F30004400012700E0002700BF88F3118800BF8C
:102F40003846BDE8F09F00002DE9F34182B0054608
:102F500000272C46B84600BFFFF720FBA66BFEB14A
:102F6000701EA063206810B9FFF72EF8A0602069DA
:102F700008B9012000E0002060B904F1100000F061
:102F800007FA38B14FF080503A490860BFF34F8FCD
:102F9000BFF36F8FFFF714FB012004B0BDE8F08191
:102FA000039818B9FFF70CFB0020F6E71FB9684635
:102FB000FFF72AFC0127FFF703FBFFF753FDFFF79D
:102FC000EDFA94F94400401C10B9002084F8440044
:102FD00094F94500401C10B9002084F84500FFF723
:102FE000EFFA03A9684600F047F840BB2046FEF719
:102FF0006BFFF0B1206838B9FFF7D0FAA06800F095
:1030000063F98046FFF7DCFA04F124000399FFF727
:103010000DFC2046FEF799FF00F0FCF900289BD13B
:103020004FF0805013490860BFF34F8FBFF36F8F8D
:1030300092E72046FEF789FF00F0ECF98CE7204686
:10304000FEF783FF00F0E6F92046FEF73DFF00287B
:1030500082D0B8F1000F0BD0FFF7A0FA2046FEF7A0
:103060003AFE06463146A068FFF7F0FBFFF7A8FAE4
:10307000002092E704ED00E070B506460C46FFF72D
:103080008DFA124802687068131A2068401C08B94B
:10309000002517E00E4930680968884204D070683E
:1030A000904201D801250DE02068984207D9206898
:1030B000C01A20603046FFF7A7FB002502E0002081
:1030C00020600125FFF77CFA284670BDC003002070
:1030D000D40300202DE9F04F85B00746884691467D
:1030E0009A46DDE90EB6109C94B18EB125462E634A
:1030F000002004A953464A46CDE900B1CDE902506B
:1031000041463846FEF764FE2846FEF733FD01E0EF
:1031100000200490049805B0BDE8F08F01490868CC
:1031200070470000C00300202DE9F04100273A4815
:103130000068002863D139480068451C374805609D
:103140008DB93748D0F800803648006834490860A7
:103150003448C0F8008034480068401C3249086098
:10316000FEF7CEFE00BF3148006885423BD300BF6A
:103170002B480068006808B9012000E0002020B159
:103180004FF0FF30294908602CE025480068C068EE
:10319000C4686668B54202D22448066022E0201D59
:1031A000FFF78EF9A06A18B104F11800FFF788F94B
:1031B00094F82C10012088401D49096808431C49D7
:1031C0000860E16A01EB81011A4A02EB8100211DCE
:1031D000FFF7D7F91849E06A0968C96A8842C7D376
:1031E0000127C5E700BF14480068C06A00EB8000F3
:1031F000104951F82000012800D9012704E00F48A8
:103200000068401C0D4908600D48006800B10127A6
:103210003846BDE8F0810000E4030020C003002030
:10322000B4030020B8030020D4030020DC030020F6
:10323000C403002070B00020B0030020CC030020A5
:10324000D003002070B505462C460026ADB3606D56
:10325000401E6065216DE06A88422ED0606D60BBC3
:10326000201DFFF72DF978B9E06A00EB80001449C2
:1032700051F8200040B994F82C10012088401149E1
:10328000096881430F480160206DE062E06AC0F187
:103290000500A06194F82C100120884009490968B4
:1032A000084308490860E16A01EB8101044A02EB26
:1032B0008100211DFFF765F90126304670BD000031
:1032C00070B00020C403002070B505462C460026CF
:1032D000002D54D02B49E06A0968C96A884247D258
:1032E000A06900F0004028B926480068C06AC0F113
:1032F0000500A061E16A01EB8101234A02EB810133
:103300006069884201D1012000E0002050B3201DF7
:10331000FFF7D6F878B9E06A00EB80001A4951F857
:10332000200040B994F82C10012088401749096802
:1033300081431648016013480068C06AE06294F84F
:103340002C10012088401149096808430F49086082
:10335000E16A01EB81010C4A02EB8100211DFFF7BC
:1033600010F903E007480068C06AE062012606E041
:103370000449206D0968C96A884200D20126304696
:1033800070BD0000B003002070B00020C403002016
:1033900070B50646F068C46804F11800FFF790F8AD
:1033A00016480068B8B9201DFFF78AF894F82C1069
:1033B0000120884012490968084311490860E16A00
:1033C00001EB81010F4A02EB8100211DFFF7D9F8C3
:1033D000FEF796FD04E004F118010B48FFF7D1F861
:1033E0000A49E06A0968C96A884204D901250120AE
:1033F0000749086000E00025284670BDE40300206E
:10340000C403002070B00020FCB00020B0030020F6
:10341000D003002070B500240026FFF7BFF82E4827
:103420000068401E2C4908600846006800284FD1FB
:103430002A48006800284BD024E02948C068C468A6
:1034400004F11800FFF73CF8201DFFF739F894F855
:103450002C1001208840234909680843214908604D
:10346000E16A01EB8101204A02EB8100211DFFF797
:1034700088F81E49E06A0968C96A884202D30120B7
:103480001B4908601648006808B9012000E00020C8
:103490000028D2D00CB1FEF733FD1648056865B19F
:1034A00000BFFFF741FE10B10120114908606D1EF9
:1034B000002DF6D100200F4908600D48006838B192
:1034C000012630070C490860BFF34F8FBFF36F8FA1
:1034D000FFF776F8304670BDE4030020BC030020FF
:1034E000FCB00020C403002070B00020B003002016
:1034F000D0030020CC03002004ED00E04FF040702A
:10350000E1EE100A7047000000000000001BB70049
:1035100000010100090101000A010100020101008E
:103520000E0101000F010100100101001101010055
:103530001201010013010100300120212223242562
:103540002627000000000001000101000004010125
:103550000008010200090103000A0104000B010533
:103560000108010601090107010001080101010923
:103570000102010A0103010B0104010C0105010D07
:103580000106010E0107010F0002011000030111E5
:10359000000C0112000D0113FFFF0114000F0200C7
:1035A00005000201050102020502020305030204EF
:1035B00005040205050502060506020700070208C4
:1035C00005070209010A020A000E020B010B020C98
:1035D000010C020D010D0300FFFF030105080302AA
:1035E00005090303FFFF0304010E0305010F030692
:1035F00000060307050A0308050B04000200040186
:10360000020104020202040302030404020404058A
:103610000205040602060407FFFF0408050C04095E
:10362000050D040A050E050002090501020A05023E
:10363000020B0503020C0504020D0505020E05062A
:10364000020F050702070600FFFF0601030006023E
:10365000030106030302060403030605030406062A
:1036600000050607050F0608051006090305060AEA
:103670000306060B0307060C0208070003080701F0
:1036800003090702030A0703030B0704030C0705DA
:10369000030D0706030E0707030F080004000801C7
:1036A00004010802040208030403080404040805D2
:1036B000040508060406080704070808FFFF0900B8
:1036C000040C0901040D0902040E0903040F090486
:1036D0000511090505120906040B0A00FFFF0A017E
:1036E00004080A0204090A03040A0A0405130B0069
:1036F00005140B0105150B0205160B0305170B042A
:1037000005180B0505190B06051A0C00FFFF0C0127
:1037100006000C0206010C0306020C0406030C054D
:1037200006040C0606050C0706060C0806070C091D
:1037300006080C0A06090C0B060A0C0C060B0C0DED
:10374000060C0C0E060D0D00060E0D01060F0D02E7
:1037500006100D0306110D0406120D0506130D06C5
:1037600006140D0706150D0806160D0906170D0A95
:1037700006180D0B06190D0C061A0D0D061B0D0E65
:10378000061C0D0F061D0D10061E0E0007000E0173
:1037900007010E0207020E0307030E0407040E05BD
:1037A00007050E0607060E0707070E0807080E098D
:1037B00007090E0A070A0E0B070B0E0C070C0E0D5D
:1037C000070D0E0E070E0E0F070F0F00FFFF0F0164
:1037D00007100F0207110F0307120F04FFFF0F0559
:1037E00007130F0607140F0707150F0807160F0911
:1037F00007170F0A07180F0B07190000FFFF00013A
:10380000FFFF0002FFFF0003FFFF00009000000029
:103810000000010090000000000002009000000085
:103820000000030090000000000004009000000071
:10383000000005009000000000000600900000005D
:103840000000070090000000000008009000000049
:10385000000009009000000000000A009000000035
:1038600000000B009000000000000C009000000021
:1038700000000D009000000000000E00900000000D
:1038800000000F00900000000000100090000000F9
:1038900000001100980000010000120090000000DC
:1038A00001001300900000000100140090000000CF
:1038B00001001500900002020000160090000000B8
:1038C00001001700900004000000180090000400A0
:1038D000000019009000040000001A001800020205
:1038E00000001B00D000020200001C009000040039
:1038F00000001D009000040000001E009000000069
:1039000000001F0090000400000020009000000054
:103910000000210090000000000022009000000044
:103920000000230090000000000024009000000030
:103930000000250090000502000026009800040108
:103940000100270090000400000028009000000003
:10395000000029009000010000002A0090000100F2
:1039600000002B009000010000002C0090000400DB
:1039700000002D009000040000002E0090000000C8
:1039800000002F009000000000003000D000000078
:10399000000031009800000100003200D00000005B
:1039A000000033009800000100003400D000000047
:1039B0000100350090000202000036009000040073
:1039C0000000370090000400000038009000040060
:1039D000000039009000000000003A009000000054
:1039E00000003B009000000000003C009000000040
:1039F00000003D009000000000003E00900000002C
:103A000000003F0090000000000040009000000017
:103A10000000410090000002000042009000000001
:103A200000004300900000000000440090000000EF
:103A300000004500900000000000460090000000DB
:103A400000004700900000000000480090000400C3
:103A5000000049009000040000004A0090000000AF
:103A600000004B009000000000004C00900000009F
:103A700000004D009000000000004E00D00000004B
:103A800000004F00D000000000005000980000012E
:103A900001005100D000010200005200D0000000DF
:103AA00000005300D000000000005400D0000000CF
:103AB00000005500D00000000000560090000000FB
:103AC0000000570098000001000058009800000115
:103AD000010059009000000000005A009000000012
:103AE00000005B009800000101005C0090000000F5
:103AF00000005D009800000100005E0090000002E0
:103B000000005F00900000000000600090000000D6
:103B100000006100900000000000620090000000C2
:103B20000000630098000401000064001800070210
:103B300000006500D000070200006600900000024F
:103B4000000067001800030200006800D0000302B4
:103B5000000069009000000000006A00900004006E
:103B600000006B009800040101006C009800040143
:103B700001006D009000040000006E009000040041
:103B800000006F0090000400000070009800040125
:103B90000000710098000401000072009000000015
:103BA0000000730090000400000074009000040006
:103BB00000007500980004010000760090000400E9
:103BC00000007700900004000000780098000401D5
:103BD000000079009800040100007A0098000401B8
:103BE00000007B00D000040000007C00980004016D
:103BF00000007D009800040100007E009000040099
:103C000000007F001800020200008000D0000202C5
:103C1000000081009000040000008200C000040049
:103C2000000083009000040000008400980004015C
:103C30000000850090000400000086009000040051
:103C4000000087009000040000008800900004003D
:103C5000000089009000040000008A009000040029
:103C600000008B009000040000008C009000040015
:103C700000008D009000040000008E00D0000102C2
:103C800000008F00900004000000900090000400ED
:103C900000009100900004000000920090000400D9
:103CA00000009300900004000000940090000400C5
:103CB00000009500900004000000960090000400B1
:103CC000000097009000040000009800900004009D
:103CD000000099009000040000009A009000040089
:103CE00000009B009000040000009C009000040075
:103CF00000009D009000040000009E009000040061
:103D000000009F00C00002020000A000C0000400EC
:103D10000000A100C00002020000A200E8000002B2
:103D20000000A300E80002020000A400E800020274
:103D30000000A500E80002020000A600E800000262
:103D40000000A700E80002020000A800E80002024C
:103D50000000A900E80002020000AA009000040090
:103D60000000AB00980004010000AC0090000400CB
:103D70000000AD00980004010000000000100840A1
:103D80000020084000100C4000200C4000100840AB
:103D90000020084000100C4000200C40001008409B
:103DA0000020084000100C4000200C40001008408B
:103DB0000020084000100C4000200C4001804721EA
:103DC000001A00803F21001A0206A520001A04866E
:103DD0008120001A04069320001A06060921001A01
:103DE0000706AD20001A0806C120001A0906F720B0
:103DF000001A0B86D320001A0C06E520001A0A06CA
:103E00001921001A05062D21001A000005000A00DC
:103E10002000240009004000400005006000A600CA
:103E20000400C000C3000200E000E0000100000147
:103E300000010300200120010600400140010C00A8
:103E400042014201190062016201130082018201F4
:103E50001200A201A2011100C201C2011000E20180
:103E6000E2010F00020202020E00220222020D00F5
:103E7000230223021C0081008200A100A200C201D3
:103E8000A201820162010000A83E001A0000002089
:103E9000080400005001001A303F001A08040020F6
:103EA00080B00000AC01001A011C4216143008401A
:103EB000320713127A23010113C41042204217164D
:103EC000500C4004076AC01C4B14111C1113C20192
:103ED000320332C73205291C13A4223320401B644D
:103EE0002B24E20813643A1B207404019D59D49AD0
:103EF00007D46AE4D41A33BCE2041A68D00AB17851
:103F0000D45B2423D41A37BC1910C11A6CD00AA56B
:103F10007CD49AC7D41A64D4111A08081A3808E253
:103F2000021A70D00A9E80D401431AAA01011C0013
:040000051A000115C7
:00000001FF
